:020000022000DC
:1060000000000120BD620200E5620200E7620200BA
:10601000E9620200EB620200ED6202000000000093
:10602000000000000000000000000000EF6202001D
:10603000F162020000000000F3620200F56202005B
:10604000D9910200F76202006D9A0200F762020025
:10605000F7620200F762020029960200F76202006E
:10606000F7620200F7620200F7620200F7620200C4
:10607000F7620200F7620200F7620200F7620200B4
:10608000F7620200B17D0200F7620200F7620200CF
:10609000F7620200F7620200B9BB0200F762020079
:1060A000F7620200F7620200F7620200F762020084
:1060B000F7620200F762020000000000000000002A
:1060C000F7620200F7620200F7620200F762020064
:1060D000F7620200F7620200F762020000000000AF
:1060E00000000000000000000000000000000000B0
:1060F00000000000000000000000000000000000A0
:10610000000000000000000000000000000000008F
:10611000000000000000000000000000000000007F
:10612000000000000000000000000000000000006F
:10613000000000000000000000000000000000005F
:10614000000000000000000000000000000000004F
:10615000000000000000000000000000000000003F
:10616000000000000000000000000000000000002F
:10617000000000000000000000000000000000001F
:10618000000000000000000000000000000000000F
:1061900000000000000000000000000000000000FF
:1061A00000000000000000000000000000000000EF
:1061B00000000000000000000000000000000000DF
:1061C00000000000000000000000000000000000CF
:1061D00000000000000000000000000000000000BF
:1061E00000000000000000000000000000000000AF
:1061F000000000000000000000000000000000009F
:1062000010B5054C237833B9044B13B10448AFF3F0
:1062100000800123237010BDC02300200000000077
:1062200094CC020008B5034B1BB103490348AFF3FC
:10623000008008BD00000000C423002094CC0200B0
:10624000A3F5803A704700BF174B002B08BF134BD4
:106250009D46FFF7F5FF00218B460F461348144A71
:10626000121A05F073FE0E4B002B00D098470D4B11
:10627000002B00D098470020002104000D000D489D
:10628000002802D00C48AFF3008005F02DFE20005E
:10629000290004F065FA05F013FE00BF00000800B5
:1062A000000000000000000000000120C0230020CA
:1062B000C02C002000000000000000000649074A32
:1062C000074B9B1A03DD043BC858D050FBDC02F09F
:1062D00015FCFFF7B9FF00008CCD0200F022002072
:1062E000C0230020FEE7FEE7FEE7FEE7FEE7FEE74D
:1062F000FEE7FEE7FEE7FEE7F0B595B008460024AE
:106300000E4617461D4602F0A9FA1A9A0D92234628
:10631000082205A93046CDE9095408978DF82C408C
:106320000C9402F0FFFADDE906219DF814308DF897
:106330001140CDE9021203F00302012A28D0022AFB
:1063400004D0304602F08EFA15B0F0BDBDF81650FC
:10635000C3F3C203C5F389158DF810300827082D43
:106360002C4628BF08243B4622460EA9304602F0A0
:10637000D9FA2D1B08AB02AA21460EA8274400F02B
:10638000E5FD002DEBD1304602F06CFA15B0F0BD02
:10639000BDF814100598C1F38312C3F3C203C0F310
:1063A0009525C1F383148DF810300EA93046920064
:1063B000082302F0B7FA08AB0093224602AB0EA9FD
:1063C000284600F04DFD304602F04CFA15B0F0BD05
:1063D000014B01221A70704720240020704700BF33
:1063E00000B583B0044B0093044A4023FFF784FFB9
:1063F00003B05DF804FB00BF01640200E02300204D
:1064000038B50F480F4D03780F4CEB5C4FF0000C84
:1064100084F800C0D2B253B1043004F035F858B952
:106420000A4B1B7813B12378002BFCD038BD0C30FD
:1064300003F07AFD0028F3D001F028F8F0E700BF60
:10644000F0220020A02A002020240020DC230020AD
:1064500010B51548154A0378D35C88B0C3B1043031
:1064600003F072FF124C0FCCEC46ACE80F0094E83E
:106470000F008CE80F0006230B48009300226946AA
:1064800002F03CFE40B90B4B00221A7008B010BD60
:106490000C3003F0DBFCE5E700F0F8FF054B0022D1
:1064A0001A7008B010BD00BFF0220020A02A002002
:1064B00088BF0200DC23002010B50F4C0FCC88B041
:1064C000EC46ACE80F0094E80F008CE80F000623C0
:1064D0000A4A0B480093694602F010FE20B9094BA6
:1064E00001221A7008B010BD00F0D0FF054B012248
:1064F0001A7008B010BD00BF88BF0200D16302004F
:10650000F0220020DC23002008B5FFF7D5FF044867
:10651000042100F021FC034B01225A7108BD00BF89
:1065200074CD020004230020064B074810B500225A
:106530001A7002F047F9044610B9044802F068FAEC
:10654000204610BDF4240020E8CC0200E0BF020089
:1065500030B499B10D490E4D491BC90813D00D4CEB
:10656000002302E0013399420AD034F8232082420A
:10657000F8D1184655F8300030BC7047044DF9E7A3
:10658000002030BC70470846F6E700BF74CD02001B
:10659000FCCC0200C0230020094B013903EBC000F2
:1065A00003290BD8DFE801F0040208060420704735
:1065B000022070474079704700797047002070478B
:1065C000FCCC0200704700BF2DE9F043904CD4E9A9
:1065D00001239A4285B060D00023C4F81834BFF379
:1065E0004F8FA568EAB2D31C04EB830114F8233063
:1065F000580718D566680B7803F00303012B42D0C7
:10660000022B03D14B88023505EB9315EAB2D4F87F
:106610001804D31C04EB830128B9AE4239D914F80D
:1066200023305B07E7D404EB82026B1CDBB2D26839
:1066300004EB830302F00301DB680229CDE90123A7
:1066400005F102062DD0012900F09280D4F81054F3
:106650003DB12B6828469B689847EB681D68002D64
:10666000F7D16C486C4B6D49C01AC008000440F06B
:10667000020000F09BFAD4E90130C01A18BF0120D3
:1066800005B0BDE8F0830B880235C3F383131D44C6
:10669000BCE7A66005B0BDE8F083002005B0BDE80A
:1066A000F083BDF806305E48C3F389184546502D87
:1066B00028BF502505F1080165F38F13C1F30901C7
:1066C000ADF8063002F080F807460028BED002F090
:1066D000C5F80023082201A9384602F0EFF8F34379
:1066E000DBB20133B5EB830F4FEA83027ED9F1B2FF
:1066F0005FFA82F9033104EB810138460823A5EBE8
:10670000090502F0DBF8EDB209F10803454903F091
:10671000FC032A46384602F0D1F808F1030806EBDC
:106720009806D4F81834002B6ED1D4F8105465B103
:10673000EB685A7928463946002A61D02B681B68D5
:106740009847EB681D68002DF2D1384602F08AF8B0
:1067500000230DF103008DF8033001F08DF9D4F81A
:10676000183403B9A6609DF8030001F0ABF982E785
:10677000BDF804202A48C2F38313062B28BF062342
:1067800063F38912023303F00F018900ADF804208E
:1067900002F01AF8074600283FF458AF02F05EF8FE
:1067A0000023082201A9384602F088F8BDF8043019
:1067B00013F4707FB5D06FF001094FF00808A9EB12
:1067C0000509F1B203314346042204EB8101384646
:1067D00002F074F8BDF804300136C3F3831309EBFB
:1067E0000602934208F10408EBD89AE7F1B20331AC
:1067F0002A4604EB81010823384602F05FF88CE753
:106800001D68002D94D1A0E7384602F02BF832E73E
:10681000F424002024CD0200FCCC0200C8BF0200FA
:10682000E8CC0200002500202DE9F04FDFF8BCB1D4
:1068300089B0002406460DF113000393CDE901123F
:106840008DF8134001F018F9DBF80830DBF804701C
:1068500003F58073DB1B032B00F281800BF21C45D8
:106860000BF583680BF214441AE0BDF81630C3F33D
:10687000891303334FEA11490AEB930A204601F0CA
:10688000A5FB494600283AD02846CBF808A001F0DD
:1068900079FBDBE9012303F580739B1A032B5FD897
:1068A0000121284601F06EFB404601F083FB2046A3
:1068B00001F080FBDBF80830DAB2D11C0BEB810C65
:1068C0001BF8211001F00400490728D40BEB8201CA
:1068D0005A1CC9680591D2B201F003000BEB820289
:1068E0000128D16803F1020A31D00228BDD0204628
:1068F00001F06CFB4FF0000949460028C4D128463E
:10690000C5E7BCF802300EEB9313DAB2D11C0BEBE7
:10691000810C1BF8210000F004000028D6D09CF860
:10692000001001F0030101290AD0022903F1020E2F
:1069300002F10301E5D00BEB810C0028EFD1C5E794
:10694000BCF800200233C2F383121344DDE7BDF824
:106950001430C3F383134FEA11499A448EE73A4641
:10696000D3B20333043285219DF813004BF8231072
:10697000CBF8042001F0A6F8BB1CDBB20BEB8303C1
:10698000029ADA60FB1CDBB20BEB8303039ADA603A
:106990000021154801F0D4FA80F31001F300019AA8
:1069A00003F0380343F08103781C43EA8223C0B22A
:1069B000FAB209040BEB8000033241EA1641C160D0
:1069C0004BF822309BF8003023B9FFF7FBFD09B0EC
:1069D000BDE8F08FFFF7F8FD0028F6D0FFF7F4FDD3
:1069E0000028F7D1F1E700BF10290020F42400208F
:1069F0002DE9F04FDFF8B0B187B0002306460DF166
:106A00000B008DF80B30CDE9001201F035F8DBE911
:106A1000018303F58073A3EB0803022B00F281804E
:106A20000BF21C450BF583670BF214441AE0BDF81A
:106A30000E20C2F3891203324FEA114A09EB920980
:106A4000204601F0C3FA514600283AD02846CBF838
:106A5000089001F097FADBE9012303F580739B1A94
:106A6000022B5FD80121284601F08CFA384601F04C
:106A7000A1FA204601F09EFADBF80830DAB2D11C08
:106A80000BEB810C1BF8211001F00400490728D4FE
:106A90000BEB82015A1CC9680391D2B201F00300CA
:106AA0000BEB82020128D16803F1020931D00228E0
:106AB000BDD0204601F08AFA4FF0000A5146002866
:106AC000C4D12846C5E7BCF802300EEB9313DAB206
:106AD000D11C0BEB810C1BF8211001F004000028E5
:106AE000D6D09CF8001001F0030101290AD0022938
:106AF00003F1020E02F10301E5D00BEB810C00283B
:106B0000EFD1C5E7BCF800200233C2F3831213446F
:106B1000DDE7BDF80C20C2F383124FEA114A91441D
:106B20008EE74246D3B20333033245219DF80B0072
:106B30004BF82310CBF8042000F0C4FF08F1020347
:106B4000DBB20BEB8303019ADA600021154801F0F8
:106B5000F7F980F31001F300009A03F0380343F0D3
:106B6000410308F1010043EA8223C0B25FFA88F2D0
:106B700009040BEB8000033241EA1641C1604BF877
:106B800022309BF8003023B9FFF71CFD07B0BDE8A9
:106B9000F08FFFF719FD0028F6D0FFF715FD00284C
:106BA000F7D1F1E710290020F42400202DE9F04F5F
:106BB000DFF8A0A187B0002306460DF10B008DF889
:106BC0000B30019100F058FFDAE9018303F580737F
:106BD000A3EB0803012B00F281800AF21C450AF5A1
:106BE00083670AF214441AE0BDF80E30C3F3891328
:106BF00003334FEA11490BEB930B204601F0E6F902
:106C0000494600283AD02846CAF808B001F0BAF937
:106C1000DAE9012303F580739B1A012B5FD8012168
:106C2000284601F0AFF9384601F0C4F9204601F0DA
:106C3000C1F9DAF80830DAB2D11C0AEB810C1AF883
:106C4000211001F00400490728D40AEB82015A1CE4
:106C5000C9680391D2B201F003000AEB8202012855
:106C6000D16803F1020B31D00228BDD0204601F0DB
:106C7000ADF94FF0000949460028C4D12846C5E7C0
:106C8000BCF802300EEB9313DAB2D11C0AEB810C84
:106C90001AF8211001F004000028D6D09CF800104A
:106CA00001F0030101290AD0022903F1020E02F1C9
:106CB0000301E5D00AEB810C0028EFD1C5E7BCF851
:106CC00000200233C2F383121344DDE7BDF80C3019
:106CD000C3F383134FEA11499B448EE74246D3B274
:106CE0000333023205219DF80B004AF82310CAF83D
:106CF000042000F0E7FE0021154801F021F980F39F
:106D00001001F300019A03F0380343F0010308F186
:106D1000010043EA8223C0B25FFA88F209040AEB59
:106D20008000033241EA1641C1604AF822309AF8E5
:106D3000003023B9FFF746FC07B0BDE8F08FFFF73E
:106D400043FC0028F6D0FFF73FFC0028F7D1F1E71D
:106D500010290020F424002030B4154DD5F810146B
:106D60000446002071B10B4601E01B6853B1DB689B
:106D70001A798242F9D101300A28F3D14FF0FF305D
:106D800030BC7047E3681871D5F810344BB1DA683D
:106D9000E36812681A60D5F81034DB681C6030BCF8
:106DA0007047C5F81044E268136030BC704700BFFC
:106DB000F424002038B5084BD3F8104401251D7089
:106DC0004CB1E3685D71236820465B689847E368CF
:106DD0001C68002CF5D138BDF424002030B5C388E0
:106DE00085B004460D4623BB237A052B1FD0627A5B
:106DF00082B9144AA08852F8232003920021FFF799
:106E0000A7FB039A10490346284605B0BDE8304069
:106E100001F056B91946A088FFF7BEFB0B4B0C4991
:106E200053F82020284601F04BF9237AE1E705B01A
:106E300030BD08490091084A0849284601F040F948
:106E4000D2E700BFB8C0020018C0020094C0020020
:106E500014C002000CC00200ECBF0200F4BF02002C
:106E60002DE9F04385B01D460C9C002394F80C904E
:106E7000237380460E46174621462846FFF7AEFF8D
:106E8000062F09D8DFE807F0042E343B444F1F00DB
:106E90004146204601F014F92B7A052B05D06B7A78
:106EA0005BB92749204601F00BF9204601F0FCF8B8
:106EB00084F80C9005B0BDE8F083224A22492046B0
:106EC00001F0FEF8EDE77369039333690293F36809
:106ED0000193B3680093D6E900234146204601F0B0
:106EE000EFF8D9E732684146204601F0E9F8D3E7E8
:106EF000D6E900234146204601F0E2F8CCE7B3682A
:106F00000093D6E900234146204601F0D9F8C3E7B3
:106F1000F3680193B3680093D6E900234146204605
:106F200001F0CEF8B8E733690293F3680193B368D0
:106F30000093D6E900234146204601F0C1F8ABE7B3
:106F400024C002000CC0020014C00200082900D9AD
:106F500070472DE9F04F1D4683B000241B7B2C7336
:106F60000E4607462946104690460193DFF8D0B0FA
:106F7000DFF8D0A0FFF732FF05E03A5D013401F001
:106F80009FF8082C09D0A64251462846F5D8594604
:106F9000013401F095F8082CF5D12449DFF8A8B0A8
:106FA000234CDFF8A8A0284601F08AF84FF000092A
:106FB00017E017F80910481C7E294FF02E02C0B2C6
:106FC00006D810F80A2012F0970F14BF0A462E2296
:106FD0002146284609F1010901F072F8B9F1080FBC
:106FE0000AD04E45E5D85946284609F1010901F075
:106FF00067F8B9F1080FF4D198F80830052B02D0E2
:1070000098F809305BB90B49284601F059F8284631
:1070100001F04AF8019B2B7303B0BDE8F08F064ADC
:107020000649284601F04CF8EDE700BF34C00200E5
:1070300038C0020024C002000CC0020014C00200CC
:1070400030C0020028C0020020C002008CCB020029
:1070500038B5174B1D783DB3164A1168C0B20023EE
:107060000C4604E00133AB4204F108041CD011F8D3
:1070700033209042F6D102F0CDFA6378A3F10103F8
:10708000B3FA83F35B09834200D038BD0A4BD3E9DE
:1070900000231343F9D1094B094819680022BDE8C0
:1070A0003840490800F04CBC00231B78FFDE00BFCD
:1070B000AC290020D0290020B8290020B0290020C8
:1070C000102300202DE9F04FDFF8788298F8003087
:1070D00083B0002B00F02B81DFF86C92954F964E19
:1070E00000254FF0010AD7F800B01BF8350002F078
:1070F00091FA1BF835400BEBC50361085B7816F875
:1071000001C014F0010EA3F10103B3FA83F314BF1D
:107110004FEA1C120CF00F025B09042A00F2EA800D
:10712000DFE802F0725F33200300834240F09F806B
:10713000BEF1000F0CBFF0230F230CEA030C0CBFB1
:107140000323302343EA0C03735498F800200135DD
:107150009542C8DBD9E90023134340F0DE8003B039
:10716000BDE8F08F834200F0C580BEF1000F0CBF78
:10717000F0230F230CEA030C0CBF0423402343EA43
:107180000C03735498F80020E1E7834240F0B58087
:10719000BEF1000F0CBFF0230F230CEA030C98F88C
:1071A00000200CBF0323302343EA0C037354002A4E
:1071B000D0D0D7F800C00023614603E0934201F12C
:1071C0000801C4D01CF83300A04203F10103F5D13B
:1071D0004B68002BBBD020460121984798F800202F
:1071E000B5E7834219BF00231A4620230222BEF1CD
:1071F000000F16BF1A46F0230F230CEA03031A43AD
:10720000725498F80020A2E7834273D14FF0000334
:10721000BEF1000F8DF8073014BF0F23F0230CEAE6
:10722000030C14BF1023012343EA0C030DF10700E4
:10723000735400F021FCA4F12003C4F120022AFAC7
:1072400002F20AFA03F31343D9F800209DF807006D
:107250000AFA04F42243C9F80020D9F804201343A1
:10726000C9F8043000F02EFC98F800206FE7BEF15A
:10727000000F14BF0F23F0230CEA030398F800C09B
:107280007354BCF1000F12D038680023024603E0AB
:10729000634502F108020AD010F83310A14203F14D
:1072A0000103F5D1536813B10021204698474FF0F0
:1072B00000030DF107008DF8073000F0DDFBA4F1AD
:1072C0002003C4F120022AFA02F20AFA03F313435C
:1072D000D9F800209DF807000AFA04F422EA040213
:1072E000C9F80020D9F8042022EA0303C9F80430C1
:1072F00000F0E8FB98F8002029E7BEF1000F0CBF72
:10730000F0230F230CEA030C0CBF0123102343EAE4
:107310000C03735498F8002019E7084B08481968C3
:107320000022490803B0BDE8F04F00F009BBDFF8C8
:1073300018900FE7D0290020C0290020B029002094
:1073400010230020AC290020B8290020092A3FD9A9
:10735000F0B583B0144605460E4601F0C9FF88B368
:10736000204B214A1E70214B1560002120481C60D3
:10737000102204F0EBFD1F4B00200021741EC3E916
:107380000001E4B236B31C4F05EBC404032602E04F
:10739000A5421FD01C469DF8063094F802C0207804
:1073A0008DF8046023F007033A4601A98DF80630F2
:1073B0008DF805C001F0A6FFA4F108030028E7D06E
:1073C00003B0F0BD01F040FF0028C9D003B0F0BD0C
:1073D00007207047094A0A48002103B0BDE8F04081
:1073E00000F096BAAC290020D0290020B029002056
:1073F000C0290020B829002051700200C570020089
:10740000D8C0020070B5084D2B785BB1074E002440
:107410003368012113F8340002F068F82B78013446
:10742000A342F5D8002070BDAC290020D02900204F
:1074300070B5124D2B7882B053B1114E00243368D1
:1074400013F8340002F0B4F82B780134A342F6D8D4
:107450000DF1070000238DF8073000F00DFB094BFC
:107460009DF8070000240025C3E9004500F02AFB31
:10747000054802B0BDE8704000F0BEBAAC2900205B
:10748000D0290020B82900201023002000B585B0A5
:107490000346002101AA44F20100CDE90111039342
:1074A00000F004F805B05DF804FB00BF10B572B63B
:1074B000FFF780FCFFF788F80028FBD1104B114C38
:1074C0001149E41AE408240444F00100FFF76EFBBC
:1074D0000E4BD3F8F030DB0700D500BE0C4944F06A
:1074E0000200FFF763FBBFF34F8F0849094BCA68DF
:1074F00002F4E0621343CB60BFF34F8F00BFFDE7A0
:10750000FCCC020024CD0200DCC0020000ED00E053
:10751000E8C002000400FA0530B48D688468C368CE
:10752000CA68A54272EB03032CBF0120002030BCC7
:10753000704700BF10B5044682B000230DF107006C
:107540008DF8073000F098FA23692BB94FF0FF321D
:107550004FF0FF33C4E902239DF8070000F0B2FAB0
:10756000D4E90530984700230DF107008DF8073066
:1075700000F082FA2369BBB1D4E90212B2F1FF3FF5
:1075800008BFB1F1FF3F0FD05B1842F10002C4E920
:1075900002329DF8070000F095FA0748214601F0F5
:1075A0005BFA012002B010BD9DF8070000F08AFAD6
:1075B000002002B010BD00BF08C102002DE9F04F4D
:1075C0002DED028B83B008EE100A00F0AFFB40B146
:1075D000AC4AD2E9003113F1807341F10001C2E9F4
:1075E000003118EE100A002100F0BCFBA64D60B37C
:1075F0002B6853B3A54B2C681B7823B31CB3A4484A
:1076000000F0C0FB9F4BA34A19685B684018D2E9A1
:10761000001243F10003884273EB020203D210F11F
:10762000807043F10003D4E902128842934180F054
:107630002581B2F1FF3F08BFB1F1FF3F03D096486B
:10764000214601F009FA00232B6018EE100A0121EF
:1076500000F088FB002840F0F180904801A900F07C
:107660000BFC00283AD08D4C4FF0FF384FF0FF391B
:1076700009E033B301A9204600F030FC01A92046FF
:1076800000F0FAFB50B30378012B11D0022BF0D19C
:10769000814E304601F0F4F930B1C0E9028930463C
:1076A00001F0EEF90028F8D1784B01221A70E1E7D9
:1076B0002B684168994200F0B580774801F0EAF9FB
:1076C000D8E74168D1E90223B3F1FF3F08BFB2F127
:1076D000FF3FCFD0704801F0BFF9CBE76E4FDFF826
:1076E000B081DFF8A091384601F0D0F9002852D0DF
:1076F000D0E90223B3F1FF3F08BFB2F1FF3F00F032
:107700008D80296891B12968D1E9020182428B41BB
:1077100044D22B68D3E90223B3F1FF3F08BFB2F193
:10772000FF3F03D02968384601F096F9384601F04A
:10773000A7F904464046574ED4E902BA00F022FBAE
:10774000D9E900133268401843F10003904272688F
:1077500073EB020203D210F1807043F10003BBEB24
:1077600000006AEB0303012873F1000324DBB0F58A
:10777000350F4DD25A464FF496030021404600F093
:107780004FFA80B10D281BD0002338462B6001F042
:107790007DF90028ACD12B68002B66D003B0BDEC7E
:1077A000028BBDE8F08F2B68002B3ED02C6003B01D
:1077B000BDEC028BBDE8F08F0021404600F0C6FA18
:1077C000324B1B78002BDFD0404600F0DBFAD9F8B3
:1077D0000030D6E90012C018D9F8043043F1000394
:1077E000884273EB020203D210F1807043F1000370
:1077F000D4E90212884293411CD2B2F1FF3F08BF84
:10780000B1F1FF3FC0D02146384601F025F9BBE772
:10781000404600F0B7FA224A0244ACE7384601F08D
:107820002FF960E700232B6024E718EE100A00F020
:10783000C5F9BBE72046FFF77DFEA5E71448154EC6
:1078400000F0A0FA0F4B1A685B688018D6E90012A6
:1078500043F10003884273EB020203D210F18070FF
:1078600043F10003C6E90003F7E618EE100A03B07F
:10787000BDEC028BBDE8F04F00F0A4B92046FFF745
:1078800059FEE0E6D8290020582A0020E0290020EF
:1078900030230020502A002008C102003C2A00208A
:1078A000FFFFB40010B5134B13491C68134882B096
:1078B00008235822019400F085FA044610B12046AE
:1078C00002B010BD0E4A0F4801A900F013F904469A
:1078D0000028F4D10B48012100F01EFA01231946BB
:1078E000094A084800F072F9084B012220461A7034
:1078F00002B010BD04C10200E42900203C2A00208F
:10790000BD75020030230020FFFF7F00E02900202A
:107910006AB19FED097BA1F101010368B1FA81F120
:10792000490983ED027BC3E9041200207047072058
:10793000704700BFAFF30080FFFFFFFFFFFFFFFFB7
:10794000F0B583B00446002501A817460E468DF811
:10795000045000F091F8D4E90223B3F1FF3F08BFCF
:10796000B2F1FF3F06D09DF8040000F0ABF82846C6
:1079700003B0F0BD1C4800F005FA1C4B1C4A196806
:107980005B684018D2E9001243F10003884273EBB0
:10799000020224D3301843F10003A060E3609DF895
:1079A000040000F08FF82369A76103B12661114834
:1079B00001A900F01FFA034670B100250D481D70A3
:1079C0005C6001A900F048FA0028D1D0064800F018
:1079D000DDF9284603B0F0BD042003B0F0BD10F17E
:1079E000807043F10003D5E730230020D829002020
:1079F000502A00203C2A002030B583B004460025E0
:107A000001A88DF8045000F037F8D4E90223B3F14F
:107A1000FF3F08BFB2F1FF3F1CD04FF0FF334FF0E4
:107A2000FF32C4E902239DF8040000F04BF810482F
:107A300001A900F0DFF9034648B10122027001A953
:107A40000B485C6000F008FA58B903B030BD042060
:107A500003B030BD9DF8040000F034F8284603B0B0
:107A600030BD044800F092F9284603B030BD00BF95
:107A70003C2A00203023002070B4EFF3108472B64B
:107A80000D4B9A68AAB9012199600C490C4ED1F8A6
:107A9000805035401D60C1F88060D1F884505D6031
:107AA0004FF0FF33C1F88430027004B962B670BC85
:107AB000704701230370F8E75C2A002000E100E032
:107AC000FC06FFBD094B9A687AB170B910B4EFF3A8
:107AD000108172B6064A1C6814605C685460986035
:107AE00001B962B65DF8044B704770475C2A00200C
:107AF00000E100E010B5294C437944F82320284CDC
:107B000004EBC3031B79002B3BD103680A88C3F83D
:107B1000082590F904308A78002B2ADB03F16043B2
:107B2000520103F56143D2B283F8002390F9043087
:107B3000002B09DB1B494FEA531C012203F01F03F2
:107B400002FA03F341F82C304279174B44F8320023
:107B50001648181A04EBC201C0084FF0010C0004CB
:107B600081F804C040F003001149FFF71FF800201E
:107B700010BD104903F00F0352011944D2B20A7626
:107B8000D4E70A4B08480C49C01AC008000440F06A
:107B90000200FFF70BF8082010BD00BF702A00207C
:107BA000682A002000E100E034CD0200FCCC020095
:107BB00038C10200FCEC00E014C10200036801229D
:107BC0001A607047036801225A60704770B40568F4
:107BD0004FF480348C40C5F80843056801F1500C1F
:107BE000C5F848434FEA8C0C05681FFA8CFC002648
:107BF00045F80C6083B055F80C500195019D05685F
:107C000001F5A87122F07F4245F821200268C2F8F0
:107C1000444313B10368C3F8044303B070BC704716
:107C20002DE9F0474FF4803622F07F4702688E40FE
:107C3000C2F848630268C2F80863026802EB810C6C
:107C4000044601F15005D2F80405DCF84025CCF8D3
:107C50004005AD00ADB2121A20684FF0000840F8A0
:107C6000058082B04059009022F07F42012A00989E
:107C70008A46994641D02268D2F80455C2F8446336
:107C80007A1B22F07F42012A0AF5A87125D02368C9
:107C900043F821702068D0F804557B1BC9F1FF120E
:107CA000013B02F57F4223F07F439A4211D343B157
:107CB000C0F8446323680020C3F8046302B0BDE841
:107CC000F087013740F821702068D0F804359D42D4
:107CD000EED00D2002B0BDE8F0872368013743F8ED
:107CE00021700C4B4FF4806043F0010398472068EB
:107CF000D0F804359D42DBD0EBE7064A4FF48060B4
:107D000042F001029047226842F8058052590192E0
:107D1000019AB0E750C1020002680223C2F844335E
:107D200011B10268C2F80433704700BF0368D3F88A
:107D3000040100B97047002282B0C3F80421D3F8CF
:107D400004310193019B012002B0704702684FF497
:107D5000803303FA01F1C2F848130368C3F808132B
:107D6000704700BF50318900036889B2585800B984
:107D7000704700225A5082B05B580193019B01204A
:107D800002B070470368D3F80405704790F90430D7
:107D9000002B09DB5A09054803F01F03012140327B
:107DA00001FA03F340F82230704700BF00E100E021
:107DB000024A034B10681B68184700BF682A00205E
:107DC000702A002099B110B4B2FBF3F403FB142421
:107DD000A4B244B9C0E9001484608281C381204602
:107DE0005DF8044B704709205DF8044B70470E2086
:107DF000704700BF10B483B050E8013F1FFA83FC06
:107E0000C489A4448489A44528BFACEB040C04892C
:107E1000A44502BFBFF32F8F002207E0CCEA030C7A
:107E200040E801C4002CE7D14FF001028DF8032097
:107E30000193019C9DF803200C6032B1006810FA98
:107E400084F003B05DF8044B704702F0FF0318465E
:107E500003B05DF8044B70470A884B889A4201D002
:107E60000020704750E8012FC2EA024240E8012397
:107E7000002BF7D10120704710B483B050E8023FC7
:107E80001FFAA3FCC488A44502BFBFF32F8F0022B2
:107E90000EE0C489A4448489A44528BFACEB040C3B
:107EA000C3EA0C4C40E802C4002CE7D14FF00102B9
:107EB0008DF803200193019C9DF803200C6032B1E2
:107EC000006800EB144003B05DF8044B704702F00B
:107ED000FF03184603B05DF8044B70470A884B88CF
:107EE0009A4201D00020704750E8022FC2EA224295
:107EF00040E80223002BF7D1012070474B0901F025
:107F00001F024FF0010C0CFA02F100EB830000F0AD
:107F100021B800BF01F01F02012303FA02F24B094E
:107F200000EB8300D14300F021B800BF4B0901F002
:107F30001F0150F82300C84000F00100704700BF47
:107F4000034653E8000F0A4643E8002C9CF0000F5C
:107F5000F7D17047034653E8002F42EA010043E897
:107F6000000C9CF0000FF6D1704700BF034653E8A9
:107F7000002F02EA010043E8000C9CF0000FF6D14C
:107F8000704700BF034653E8002F02EB010043E8AF
:107F9000000C9CF0000FF6D1704700BF034653E879
:107FA000002FA2EB010043E8000C9CF0000FF6D17B
:107FB000704700BF0346012253E8001F41EA020058
:107FC00043E8000C9CF0000FF6D1704703460022F6
:107FD00053E8000F00EA020143E8001C9CF0000F88
:107FE000F6D17047D0B110B4D0E90112521A04682A
:107FF000D2B2531E2160DBB252B101680A6803F1AC
:10800000FF3C541C0C6013705FFA8CF3FF2BF4D10F
:108010000368002018715DF8044B70470E2070470C
:1080200030B583B0044600250DF107008DF80750E8
:10803000FFF722FDD4E900311A688A4210D9511E97
:1080400019602168A3680D6812F8012C208A5B1B57
:10805000E56800FB02550A79DBB29A4238BF0B7122
:108060009DF80700FFF72EFD284603B030BD00BF86
:1080700030B5054683B00DF1070000230C468DF89E
:108080000730FFF7F9FC2A681368591C1160E9688A
:108090002A8A641AB4FBF2F41C709DF80700FFF7FB
:1080A00011FD03B030BD00BF826842B110B5044677
:1080B00043690168006998470023A36010BD7047B9
:1080C0000EB400B582B0039921B104AB01AA0193AB
:1080D00000F0B6F802B05DF804EB03B0704700BFE3
:1080E0002DE9F04F154683B0A942DDF830900D9A86
:1080F0000F4606469A46C0F09E800B464FF0010898
:10810000B3FBF5F39D4208F10108F9D9D04538BF1A
:10811000D04612F00103019302D1B9F1000F67D1EB
:10812000B268BAF1010F4FF0010406D90AF1FF3A23
:10813000BAF1010F05FB04F4F8D8B7FBF4F39D4244
:1081400005D805FB04F4B7FBF4F39D42F9D9DFF839
:10815000ECA007E0AC42B4FBF5F31AD3B2681C46BE
:10816000B7FBF3F31AF803B0BBF10A0F04FB137764
:1081700028D03368511CB16003F802B0D6E901324F
:108180009A42E7D33046FFF78FFFB4FBF5F3AC42DA
:10819000E4D2019B9BB1B9F1000F10D02024C84557
:1081A00009F1FF390BD2B3683268591CB160D4545D
:1081B000D6E901329A4214D2B9F1000FEFD103B0DF
:1081C000BDE8F08F511C3368B1604FF00D01995438
:1081D000D6E901329A42CCD33046FFF765FFB26848
:1081E000C7E73046FFF760FFB9F1000FD7D1E6E7E8
:1081F00093071AD42024B268C84502F1010190D235
:108200003368B1609C54D6E901329A4209F1FF39D2
:1082100003D2B9F1000FEFD183E73046FFF744FFF7
:10822000B268B9F1000FE7D17BE7BAF1000F0CBFDC
:1082300030242024DFE74FF0010867E758C102002F
:10824000002900F05C822DE9F04FDFF870950D7881
:1082500085B0064690460C464FF00D0A0FE00A2DF9
:10826000B36800F08E803268591CB160D554D6E9ED
:1082700001329A4280F081802578002D69D0013446
:10828000002D66D0252DEAD10027234614F8012BB6
:108290002D2A6CD0302A6DD02B2A61D02A2A7FD08B
:1082A000A2F1300109294FF000050BD805EB850537
:1082B00002EB450513F8012FA2F130010929A5F1C0
:1082C0003005F3D92E2A1C4675D0002301E014F89E
:1082D000012F02F0FB016829F9D0252A00F08681E0
:1082E000583AD1B2202930D8202A2ED8DFE812F00F
:1082F00021002D002D002D002D002D002D002D0022
:108300002D002D002D00FE0079002D002D002D00E8
:108310002D0079002D002D002D002D002D002D00A9
:10832000BD002D002D001A012D0016012D002D007D
:108330002100D8F800101022081DC8F800000968B4
:108340003046CDE90057FFF7CBFE01342578002DEC
:1083500095D1337B002B40F0438105B0BDE8F08F11
:10836000234614F8012B2D2A47F0040792D147F039
:1083700001078AE747F0020787E73046FFF794FED8
:108380007AE73268591CB16002F803A0D6E90123EC
:108390009342FFF468AF3046FFF786FEB36862E7AA
:1083A000D8F80020111DC8F8001015685A782E2A38
:1083B00003F1010489D16278A2F13003092B04F1A1
:1083C00001044FF0000384D803EB830302EB430363
:1083D00014F8012FA2F130010929A3F13003F3D9D8
:1083E00077E7D8F80020111DC8F80010D2F800B0C7
:1083F0008BEAEB72A2EBEB72092A40F3DB81DFF828
:10840000C0C3012011466329ACFB02E200F1010068
:108410004FEAD202F6DC9842024638BF1A46029270
:10842000002D00F01E81BBF1000FC0F22E817A07F3
:1084300000F12B81B80740F12A81002B40F0278101
:10844000BBF1000FC0F27D817A0700F18D8107F04A
:108450000302022A00F05D81CDE9005759460A2245
:108460003046FFF73DFE013470E7D8F800301A1DA2
:10847000C8F800201F68B3683268581C3021B0600B
:10848000D154D6E90123934280F0FA80591C326816
:10849000B1607821D154D6E901329A4280F0EB8064
:1084A0000F2F03D93B461B090F2BFCD84FF08055EB
:1084B00006E00F2D4FEA15137FF647AFB2681D4651
:1084C000B7FBF5F319F803B0BBF10A0F05FB1377FF
:1084D00077D03368511CB16003F802B0D6E901329D
:1084E0009A42E6D33046FFF7DFFDE2E7D8F80030E6
:1084F0001A1DC8F800201D78B3680A2D00F03A81D3
:108500003268591CB160D554D6E901329A42FFF461
:108510001CAF3046FFF7C8FD013417E7D8F800104C
:108520000A2209E7D8F800301A1DC8F8002017F011
:108530000107D3F800B064D1BBF1000F03D0584657
:1085400003F00CFD0746BD4215D9202201E0BD42D3
:1085500011D0B1683368481CB0605A54D6E9013074
:10856000984205F1FF35F2D33046FFF79DFDBD423D
:108570004FF02002EDD19BF80050002D3FF4E5AE06
:108580000A2DB0680FD03368421CB2601D54D6E982
:108590000130984280F0B4801BF8015F002D3FF459
:1085A000D4AE0A2DEFD13368421CB26003F800A0AC
:1085B000D6E901309842E6D33046FFF775FDB06842
:1085C000E1E73368511CB16003F802A0D6E901323B
:1085D0009A42FFF47EAF3046FFF766FDB26878E757
:1085E000304605B0BDE8F04FFFF75EBDB3683168B7
:1085F000581CB060CA54D6E901329A4289D201347B
:10860000A4E69BF80030002B00F0D680B0685F46EF
:10861000CBF101020A2B02EB070B5ED0411CB160CB
:1086200031680B54D6E90130984248D217F8013F1F
:10863000002BEFD15D457FF688AE202702E05D4537
:108640003FF483AEB2683368511CB1609F54D6E9E1
:1086500001329A4205F1FF35F1D33046FFF724FD90
:10866000EDE7B80705D5002B3FF4EAAEF9073FF573
:10867000E7AE0025E4E63046FFF716FDB2680FE7E7
:108680003046FFF711FDB36800E7013DD2E6F90778
:108690003FF5D6AE002DECD020220299A942BFF4BE
:1086A000CFAEB168481CB06030684254D6E90101D1
:1086B000814205F1FF356CD2002DEED1D9E730466D
:1086C0000292FFF7F1FC17F8013F002BB2D0029A9B
:1086D000B0680A2B02EB070BA0D1411CB1603168D6
:1086E00001F800A0D6E90110884297D33046CDE9C1
:1086F0000232FFF7D9FCDDE90232B0688EE770473D
:108700003046FFF7D1FC1BF8015F002D7FF438AF36
:108710001BE6002B7FF4A0AE8DB1302202998D4272
:108720007FF69AAEB168481CB06030684254D6E912
:108730000101814205F1FF3535D2002DEED1002532
:108740008AE6B1683268481CB060CBF1000B2D207E
:108750005054D6E901219142FFF479AE304603939B
:10876000FFF7A2FC039B72E6B1683268481CB06058
:108770002B20EDE73268591CB16002F803A0D6E95E
:1087800001239342FFF4BCAE3046FFF78DFCB36883
:10879000B6E630460393FFF787FC039B2022002DAB
:1087A0007FF47BAF65E730460393FFF77DFC039BC7
:1087B0003022C2E701202EE69B463BE758C102006B
:1087C000CDCCCCCCFFF70EBC2DE9F041058A0331AE
:1087D000043D4E198046B6FBF5F6FFF721FCA0B329
:1087E000F6B24FF48073013E04468380C580C0F822
:1087F00000802BD00346002508E06279AE4202F1EA
:10880000010262713860C0F800801FD040461F46E8
:10881000FFF706FC013503460028EED16779791E83
:1088200017D02246013399421268FBD1D2F800805A
:108830005FB12668002501E034463668214640468F
:108840000135FFF715FCAF42F6D800242046BDE8FD
:10885000F08120682146FFF70BFCF6E70121043088
:10886000FFF790BB2DE9F041012104460430FFF7EA
:1088700095FB10F0FF0301D0BDE8F0816779791E08
:1088800016D02246013399421268FBD1D2F80080FB
:10889000002FF1D02668002501E0344636682146D5
:1088A00040460135FFF7E4FBAF42F6D8BDE8F08162
:1088B00020682146BDE8F041FFF7DABB2DE9F84317
:1088C0008846C788417907FB01F1043902EB030CA4
:1088D0001E1D6145154638BFCD1AB7420446B6FB8A
:1088E000F7F207FB126002D8013A2468FCD13E1A65
:1088F000AE4228BF2E469DB14FF000090430AD1B9B
:10890000324608EB0901204403F012FBAF42B144A8
:1089100024683E464FF0000028BF2E46002DEDD1C2
:10892000BDE8F8832DE9F8430446C788407907FB82
:1089300000F0043802EB030C1E1D6045154638BFDD
:10894000C51AB7428846B6FBF7F107FB116202D899
:1089500001392468FCD1BE1AAE4228BF2E469DB113
:108960004FF00009111DAD1B3246214408EB0900F0
:1089700003F0DEFAAF42B14424683E464FF00002F5
:1089800028BF2E46002DEDD1BDE8F88341DF7047AA
:10899000064A074B10B5002414701C60BFF35F8FAC
:1089A0000449054800F042F8204610BD7C2A00200A
:1089B000802A002074C10200742A002000B583B010
:1089C00000230DF107008DF80730FFF755F8F1EEA1
:1089D000103A23F09F03E1EE103ABFF35F8F0B4B89
:1089E0004022C3F884219DF80700FFF76BF803F0DD
:1089F000DDF828B920BF40BF20BF03B05DF804FBFD
:108A000003B05DF804EBFFF7C1BF00BF00E100E079
:108A10008268002393608268136182685361826870
:108A2000D3608268536082681360704701600B688E
:108A300043604A68934204BF00234360704700BF0D
:108A4000436843B1026891680B44436052689342A3
:108A500004BF00234360704770B544680646206831
:108A60000D4618B908E02468206828B1B368294683
:108A700098470028F7D120682860256070BD00BFA6
:108A80004368186808B102681A607047436818683C
:108A9000704700BF4368186818B908E003460068CB
:108AA00028B18142FAD10A681A60012070477047E4
:108AB0001049A1F5947205E052F83330984238BF5E
:108AC00061460CD2A1EB020C4FEADC7303EBEC0322
:108AD0005B10914202EBC30CEED80748704702D9F5
:108AE0000CF10802EEE7DCF80400034B002808BF95
:108AF00018467047B4C6020078C5020010B44FF0A3
:108B00008053D3F830315A1C04BF4FF0704393F8B0
:108B1000E03F062B08D14FF08053C24AD3F82433EC
:108B2000C3F30423C2F840354FF0704393F8E02FAD
:108B3000062A00F024814FF08053D3F830315C1CBA
:108B400004BF4FF0704393F8E03F062B09D14FF07C
:108B500080534FF08042D3F84432C3F34233C2F81B
:108B60003C354FF0704393F8E02F062A00F0F28076
:108B70004FF08053D3F83031581C04BF4FF070438E
:108B800093F8E03F062B08D14FF080430022C3F852
:108B90000C21C3F81021C3F838254FF0704393F827
:108BA000E02F062A00F0B3804FF08052D2F8303127
:108BB000591C27D0062BD2F834212DD09A4AD2F84E
:108BC000883043F47003C2F88830BFF34F8FBFF38F
:108BD0006F8F4FF08053D3F83021062A00F0E080E9
:108BE0004FF01023D3F80022002AC0F23B81D3F8C3
:108BF0000432002BC0F236818C4B8D4A1A605DF82E
:108C0000044B70474FF0704292F8E01FD2F8E82F03
:108C10000629D3D1C2F30312033A042A40F2DA80C0
:108C20004FF08053834AD3F80414C2F82015D3F8C8
:108C30000814C2F82415D3F80C14C2F82815D3F878
:108C40001014C2F82C15D3F81414C2F83015D3F848
:108C50001814C2F83415D3F81C14C2F84015D3F810
:108C60002014C2F84415D3F82414C2F84815D3F8D8
:108C70002814C2F84C15D3F82C14C2F85015D3F8A8
:108C80003014C2F85415D3F83414C2F86015D3F870
:108C90003814C2F86415D3F83C14C2F86815D3F838
:108CA0004014C2F86C15D3F84414D3F83031C2F82C
:108CB00070155C1C04BF4FF0704393F8E03F062B27
:108CC0007FF47CAF4FF080524FF08041D2F85832A1
:108CD000D2F8302103F04F03501CC1F8E43E7FD09E
:108CE000062A7FF46BAFD1F80034DA0700F18480F4
:108CF0004FF08053D3F83431033B042B64D94E4AF0
:108D0000D2F83C3743F48063C2F83C3756E7D3F8D7
:108D1000E83FC3F30313033B042B3FF645AF474A39
:108D2000D25C22B14FF080420321C2F8A015444A20
:108D3000D35C002B3FF438AF424B052401200021C7
:108D40003F22C3F81046C3F88806C3F81816C3F8C4
:108D5000142629E7D3F8E83FC3F30313033B042B9E
:108D60003FF606AF384AD35C002B3FF401AF2E4AE2
:108D7000D2F8FC3023F08073C2F8FC30F8E6D3F868
:108D8000E83FC3F30313033B042B3FF6D4AE2F4A53
:108D9000D35C002B3FF4CFAE2D4B2E4A5A67CAE668
:108DA000D3F83431033B042B08D94FF010224FF095
:108DB0008043D2F80822C3F8582511E7264AD35C2D
:108DC000002B3FF40DAFF0E7244AD35C002B3FF4B7
:108DD000F5AE94E722498A5C002A3FF46AAF1FE7A8
:108DE0004FF0704393F8E03F062B7FF4E7AED1F8E5
:108DF0000034DB077FF5E2AE4FF080534FF0804246
:108E0000D3F830316FF00101062BC2F800147FF463
:108E1000D5AE4FF08053D3F83431033B042B3FF6EB
:108E20006EAFD1E70030014000ED00E038230020B4
:108E30000090D00300C0004000100040CCC60200EB
:108E4000CCC6020000500040CCC60200CCC60200D6
:108E500000C007400DF0ADBAC4C60200BCC6020097
:108E6000B4C60200184A0123C2F80435D2F800340F
:108E7000002BFBD04FF010231521134AC3F800122A
:108E8000D2F80034002BFBD04FF0102315210E4AEE
:108E9000C3F80412D2F80034002BFBD000230A4997
:108EA000C2F80435D1F80034002BFBD0BFF34F8F4C
:108EB0000649074BCA6802F4E0621343CB60BFF374
:108EC0004F8F00BFFDE700BF00E0014000ED00E074
:108ED0000400FA05044A115C01234FF0A0428B40C4
:108EE000C2F80C35704700BFD4C60200044A115CBA
:108EF00001234FF0A0428B40C2F80835704700BFF5
:108F0000D4C60200C20710B41AD54FF0A043032202
:108F10004FF40031C3F844274FF48024C3F84827A6
:108F2000C3F84C27C3F85027C3F808154FF4801234
:108F30004FF40021C3F80845C3F80815C3F8082505
:108F400083070AD54FF0A0430C22C3F83427C3F897
:108F50003827C3F83C27C3F840275DF8044B704717
:108F600010B568B90E4CA368012262703BB1D3E919
:108F700000230020A2609847A368002BF7D110BD02
:108F80000128FCD1064C2369A070002BF7D0D3E94F
:108F900000230120226198472369002BF7D110BDDF
:108FA000842A002070B910B5074CA36801226270B2
:108FB0003BB1D3E900230020A2609847A368002BAF
:108FC000F7D110BD704700BF842A002030B50128BA
:108FD00083B004D0032821D0B0B103B030BD294CF8
:108FE00000230DF107008DF80730FEF745FD2378CB
:108FF0006BB3E3689DF8070001221344E360A2709D
:10900000FEF760FD03B030BD1F4B0122C3F8802086
:10901000BFF34F8FBFF36F8F03B030BD194C00F01B
:10902000B3F800230DF107008DF80730FEF724FD9B
:10903000E368013BE360E3681BB9144BD3F80054C9
:10904000C5B19DF80700FEF73DFD03B030BD1048E7
:109050006360A3602361E36000F08AF802F0A6FD7C
:1090600060B10A4A01232370D2F80024002AC0D03C
:10907000A370BEE700F09AF8A570E2E700F084F86C
:10908000EFE700BF842A002000E100E0000001407B
:10909000618F020030B50A4B0A4C53F8213054F866
:1090A0002110027885B0D0E901548DF80020C26803
:1090B00001958DF8084003926846984705B030BD89
:1090C0009C2A0020982A002030B50A4B0A4C53F8FD
:1090D000213054F82110027885B0D0E901548DF880
:1090E0000020C26801958DF80840039268469847B1
:1090F00005B030BD9C2A0020982A0020F0B5174BFF
:1091000006784F7F43F826201446154B154A9F5585
:109110000546086942F826008C46BCE80F0089B075
:10912000EE46AEE80F009CE80F008EE80F000496B4
:109130004FB1002C0C4A694608BF2246281D01F099
:109140001BF809B0F0BD002C084A694608BF22464A
:1091500005F10C0000F0ACFD09B0F0BD9C2A002028
:10916000A02A0020982A002095900200C9900200B1
:10917000044A137923B90121106091801846704781
:1091800085207047A42A0020074B1A68D20704D410
:10919000C02283F8002301221A604FF0804301228D
:1091A000C3F81825704700BF00E100E04FF080428F
:1091B00002210023C2F8081382B0C2F80431D2F8A9
:1091C0000431019301230199D360D2F81834DB03F1
:1091D000FBD402B0704700BF10B54FF0804382B09F
:1091E000D3F8002162B10021164AC3F80011D3F868
:1091F0000011507900910121009CC3F80813A8B117
:109200004FF08043D3F80421CAB10022C3F80421EF
:10921000D3F80421019202210A4A0198C3F80813E5
:109220001368012002B0BDE810401847136851715F
:1092300098474FF08043D3F80421002AE5D102B0CB
:1092400010BD00BFA42A002030B5254C94F858303A
:1092500083B0002B40D16FF02F0004F1300304F1F4
:10926000500C001B4FF0FF31C21821FA02F2D20756
:1092700048BF197001336345F6D14FF0FF304FF00E
:10928000FF314FF0FF33C4E90001042200211548EB
:109290002365C4E90233C4E90433C4E90633C4E9ED
:1092A0000833C4E90A3302F051FE0F4BC02283F8A1
:1092B000062340221A600D4B0020C3F87C01D3F82E
:1092C0007C210192019D4FF00042012184F8581049
:1092D000C3F8042303B030BD082003B030BD00BF85
:1092E000B02A0020042B002000E100E000600040D4
:1092F000034B93F85800003818BF0120704700BF97
:10930000B02A002070B5774B03EB000E9EF930C0F9
:10931000BCF1000F01DB082070BD91F802C01CF009
:10932000020FCCF340055DD11C6A013400F0D280FD
:109330005C6A013400F0C4804FF00C0E4FF00A0C50
:1093400053F82C40013459D00CF10104744547D234
:1093500053F82460013600F0AB800CF10204744530
:109360003ED253F82460013600F0A2800CF10306CF
:10937000764535D253F8264001343ED00CF1040630
:1093800076452DD253F82640013436D00CF105062F
:10939000764525D253F8264001342ED00CF106062E
:1093A00076451DD253F82640013426D00CF107062D
:1093B000764515D253F8264001341ED00CF108062C
:1093C00076450DD253F82640013416D00CF1090C25
:1093D000F44505D2DC6A013408BF4FF00B0C0DD008
:1093E000042070BD1C68013464D05C6801346ED008
:1093F0004FF0080E4FF0020CA2E7B44643F82C20C1
:109400001A184FFA8CFE82F830E015B99C448CF89B
:1094100048008A78540715D4D50740D5820002F158
:10942000A042D2F8004724F00204C2F800472E4DB3
:10943000C40800F0070C2E5D012202FA0CF2324340
:109440002A558A7812F002021CD04FEA8E0303F1EB
:10945000804303F5C0430978D3F8104524F447341A
:1094600024F44074C3F8104502020904D3F810052F
:1094700001F4403102F4F8520A430243C3F81025C4
:10948000002070BDAEF1080E43FA8EF30C7893F80D
:109490005010104641EA841283F8502070BD4A787B
:1094A0004FF0A04400F5E075920044F82520BEE797
:1094B000A446A3E71A6000228EF830209646A8E75B
:1094C0004FF0090C8EF830C05A62E6469EE74FF026
:1094D000010C93E74FF0080C8EF830C01A62E64694
:1094E00094E700BFB02A0020042B002030B42E4C9B
:1094F00004EB000C82B09CF93030072B1EDD083BDA
:1095000044FA83F393F850309B09032B41D0012B8D
:109510000CBF4FF400334FF44033800000F1A04003
:10952000D0F8002722F44032C0F80027D0F80027F6
:109530001343C0F8003702B030BC7047DAB2072AD4
:10954000F9D8980000F1804003F1400200F5C040D6
:1095500052B29200D0F8105592B202F1804202F558
:10956000C04245F00105C0F8105500201060126897
:109570000192019A0029DED09CF9302054F8222073
:10958000002AD8D00949012202FA03F3C1F80433B2
:10959000D1E74FF0A043D3F81035C34003F00103E7
:1095A00002331B04B9E700BFB02A0020006000406E
:1095B000164B034493F93030072B0DDD800000F18A
:1095C000A040D0F8003723F44033C0F80037D0F87B
:1095D0000037C0F800377047DAB2072A14D810B441
:1095E0009A0002F1804202F5C042094CD2F81005FF
:1095F000012120F0010001FA03F3C2F81005C4F8BC
:1096000008335DF8044B7047704700BFB02A002054
:10961000006000404FF0A043D3F8103523FA00F06B
:1096200000F00100704700BFF0B585B01D4A00236F
:109630000193D2F80011012900F0E5811E46194B73
:10964000D3F80421012A00F0CF81164BD3F808216A
:10965000012A00F0B881134BD3F80C21012A00F045
:10966000A381104BD3F81021012A00F08E810D4BFD
:10967000D3F81421012A00F079810A4BD3F818217C
:10968000012A00F06481074BD3F81C21012A0BD07A
:10969000044BD3F87C21012A00F0C28126BB05B01F
:1096A000F0BD00BF00600040D3F804231206EFD5E0
:1096B0000022C3F81C21D3F81C110291D3F87C11AD
:1096C0000298012946F080060ED1C3F87C21D3F818
:1096D0007C2103924FF0A043039AD3F820250192F6
:1096E000C3F8202546F00046BE4F00240125A30004
:1096F00003F180432E4203F5C0434FEA45050BD0EA
:10970000D3F8100557F82420D3F81015C0F304201F
:10971000C1F3014102B190470134082CE7D1002E7A
:10972000BDDAB04C01254FF0A04694F95000471C1B
:109730003DD0C0F3C20310336B44C1B213F80C2CFC
:1097400000F0070305FA03F31A4200F03F002ED0A1
:10975000830003F1A04305FA00F7D3F80027D3F8FC
:1097600000C72CF4403CC3F800C7C2F30142D3F851
:1097700000C7022A0CBF4FF4403E4FF4003E4CEAB3
:109780000E0CC3F800C72318C6F8207593F93030C3
:1097900054F823305BB18909032900F06581022A5E
:1097A00000F05F81032A02D1022900F05D8194F963
:1097B0005100411C3DD0C0F3C20310336B44C1B211
:1097C00013F80C2C00F0070305FA03F31A4200F01B
:1097D0003F002ED0830003F1A04305FA00F7D3F831
:1097E0000027D3F800C72CF4403CC3F800C7C2F3ED
:1097F0000142D3F800E7022A0CBF4FF4403C4FF47B
:10980000003C4CEA0E0CC3F800C72318C6F82075BC
:1098100093F9303054F823305BB18909032900F003
:109820001981022A00F01381032A02D1022900F0D3
:10983000118194F95200421C3DD0C0F3C203103391
:109840006B44C1B213F80C2C00F0070305FA03F3C4
:109850001A4200F03F002ED0830003F1A04305FA26
:1098600000F7D3F80027D3F800C72CF4403CC3F826
:1098700000C7C2F30142D3F800E7022A0CBF4FF43D
:10988000403C4FF4003C4CEA0E0CC3F800C72318D0
:10989000C6F8207593F9303054F823305BB189094C
:1098A000032900F0D280022A00F0CC80032A02D1E2
:1098B000022900F0CA8094F95300431C3DD0C0F344
:1098C000C20310336B44C1B213F80C2C00F0070331
:1098D00005FA03F31A4200F03F002ED0830003F193
:1098E000A04305FA00F7D3F80027D3F800C72CF4FB
:1098F000403CC3F800C7C2F30142D3F800E7022A94
:109900000CBF4FF4403C4FF4003C4CEA0E0CC3F843
:1099100000C72318C6F8207593F9303054F8233067
:109920005BB18909032900F09A80022A00F0948033
:10993000032A02D1022900F09280D6F82035019343
:10994000C6F82035002B7FF4F0AE05B0F0BDD3F89B
:10995000042351067FF597AE0022C3F81821D3F8EF
:1099600018310293029B46F040068CE6D3F804239C
:1099700090067FF582AE0022C3F81421D3F814318B
:109980000293029B46F0200677E6D3F80423D40620
:109990007FF56DAE0022C3F81021D3F81031029389
:1099A000029B46F0100662E6D3F8042315077FF504
:1099B00058AE0022C3F80C21D3F80C310293029B5D
:1099C00046F008064DE6D3F8042357077FF543AE6B
:1099D0000022C3F80821D3F808310293029B46F015
:1099E000040638E6B02A0020D3F8042392077FF556
:1099F0002CAE0022C3F80421D3F804310293029B59
:109A000046F0020621E6D2F8046316F001063FF4A0
:109A100016AEC2F80031D2F800310293029B0EE676
:109A20000022C3F87C21D3F87C2103924FF0A0439D
:109A3000039AD3F820250192C3F82025002E3FF485
:109A400070AE4FE601297FF436AF984733E701291E
:109A50007FF4EFAE9847ECE601297FF46EAF9847AC
:109A60006BE701297FF4A3AE9847A0E6014B1B6882
:109A7000184700BF0C2B0020104B98421BD130B56B
:109A800083B000230DF107008DF807300D46FDF778
:109A9000F3FF0B4B9DF807001C793CB901221D60B8
:109AA0001A71FEF70FF8204603B030BDFEF70AF832
:109AB000112003B030BD0020704700BF00200040DF
:109AC0000C2B0020034B984203D1034B00221A6059
:109AD0001A717047002000400C2B0020000000008D
:109AE00010B5714AD2F8043399058AB068D5D2F816
:109AF0002431002B64D00023C2F82431D2F8243161
:109B000001934FF40171694B0198C2F8081393F85F
:109B1000291009B901215160634902228DF81820EA
:109B2000D1F88024C1F880249FED5D7B9969D868C5
:109B3000CDE9081283ED067BD3E90012079006A851
:109B40009047594AD2F81C31C3B1584B5869196A29
:109B500088426AD993F8281001F0FF00002964D1E7
:109B6000C2F81C01D2F81C11039103999C68186A71
:109B7000196A205C01311962C2F81C054A4AD2F800
:109B80004431DBB10021494BC2F84411D2F8440101
:109B900093F829100090009809B1012111609A6989
:109BA00062B1D8685C6A00210122CDE9070499619D
:109BB0008DF8182006A8D3E9001290470AB010BD0E
:109BC000394AD2F804335B07BBD5D2F80831002BF1
:109BD000B7D0364B996900293ED00021C2F8081150
:109BE000D2F8081104910499D868596AD2F8182556
:109BF00042545A6A996901325A625A6A8A42A0D119
:109C0000DA69002A31D09A611A69D8685C6ADA6028
:109C1000002101220894D961596207905C68196893
:109C20008DF8182006A8A0478BE71F4A0020C2F82D
:109C30001C01D2F81C210292029A5A69002A9DD076
:109C4000D3E901215C698DF81800CDE9071458614A
:109C5000196806A8904791E7C2F80811D2F80801E0
:109C600005900598D2F81825C7E793F8292012B96E
:109C70000D4A012151600C4A4FF40171C2F80813DA
:109C8000D8685C6A0021012299618DF81820D3E917
:109C90000012CDE9070406A8904752E7AFF3008011
:109CA000000000000000000000200040182B0020F1
:109CB0002DE9F041604E90F804802C2303FB0863EB
:109CC00082B093F82A30002B40F0898005460C467C
:109CD00000685A491746FFF7CFFE00287BD123685A
:109CE000591C0CD04FF0A041012202FA03F3C1F835
:109CF0000835236803F5E073032241F823206368E5
:109D00005A1C06D003F5E0734FF0A042002142F840
:109D100023102B68A269C3F82425227D637D134399
:109D20002A68C2F86C35D4E900122B68C3F81425F0
:109D3000C3F80C15237D012B5CD02C2303FB08F307
:109D4000F21857602269F25097B32A68237F0021E6
:109D5000C2F81C11D2F81C210092009A2A68C2F89D
:109D60004411D2F844210192019A2A683449C2F878
:109D700004132A6842F3073100294FEA123232DB1A
:109D800001F160415B0101F56141DBB281F8003313
:109D90002B6843F30732002A4FEA133109DB294CC1
:109DA0005209012301F01F0103FA01F144F82210C6
:109DB0002B680422C3F800252C2303FB086601222C
:109DC0000023C6E9063386F82930736186F82A2015
:109DD00002B0BDE8F081112002B0BDE8F08108209A
:109DE00002B0BDE8F081184902F00F025B01DBB25E
:109DF0008B54CDE7A368591C06D003F5E0734FF0F0
:109E0000A042002142F82310E3685A1C0DD04FF005
:109E1000A041012202FA03F3C1F80835E36803F513
:109E2000E073032241F82320E3682A68A168C2F89E
:109E30000835C2F8101580E7182B0020E19A0200BF
:109E40008000020000E100E014ED00E0F8B50368D6
:109E50000679324C0022C3F800252C2303FB06436D
:109E60005B68C3B103682E4AC3F80823036843F351
:109E70000732002A4FEA13310EDB5209294D2032F6
:109E8000012301F01F0103FA01F145F82210BFF38D
:109E90004F8FBFF36F8F0368D3F80CC5D3F81475D9
:109EA000D3F80815D3F810554FF0FF32C3F8142536
:109EB000C3F80C2503689445C3F80825C3F810259A
:109EC00006D00CF5E07C4FF0A043022243F82C2092
:109ED0007B1C06D007F5E0774FF0A043022243F841
:109EE00027206A1C06D005F5E0754FF0A04302223A
:109EF00043F825204B1C06D04FF0A04301F5E0713C
:109F0000022243F821200068FFF7DCFD2C2303FB2D
:109F10000644002384F82A306360F8BD182B002023
:109F20008402020000E100E02DE9F041334C90F89A
:109F300004E02C2303FB0E438446586984B00028B8
:109F40004ED15A619960186283F82800DCF800202D
:109F5000C2F81C01D2F81C210292029ADCF80020FF
:109F600001219160DCF800209D68C2F81C01D2F844
:109F70001C1101910199196A6E5C196A013119620B
:109F8000C2F81C655A6812B104B0BDE8F0815E6980
:109F90001A6ADCF8001096421BD9074602E093F8D3
:109FA00028200ABBD1F81C21002AF8D0C1F81C7166
:109FB000D1F81C210392039A1A6A15F802801A6AD2
:109FC00001321A62C1F81C851A6A9642EAD8DCF896
:109FD0000010D1F81C31002BFBD00123CB6004E032
:109FE000112004B0BDE8F0810F202C2303FB0E44A8
:109FF0000023636104B0BDE8F08100BF182B00208E
:10A0000010B55B4BD3F824218AB0002A58D0002227
:10A01000C3F82421D3F82411049102228DF81820CA
:10A020000499544AD3F88014C3F880149FED4E7BF2
:10A030000991D3F83C45D06882ED067BCDE9070451
:10A04000D2E9001306A89847494BD3F8442152B1EE
:10A050000021484AC3F84411D3F8440191690390A0
:10A060000398002961D1424BD3F8202162B100202E
:10A07000C3F82001D3F82021029201213D4A029C1D
:10A08000D9605169002943D1394BD3F85821AAB17D
:10A090000020C3F85801D3F85811364A01910199AC
:10A0A000516959B1D3F84C458DF81800D2E9013106
:10A0B0005061CDE9071406A8116898470AB010BD91
:10A0C000D3F810110029BFD0C3F81021D3F8101114
:10A0D000284C05910599A169D3F83C058842B3D174
:10A0E000E169002933D0C4E90612D3F8002222F036
:10A0F0002002C3F80022E2680792012122698DF84C
:10A100001810089063682168E26006A898479BE7EA
:10A11000D3F84C458DF81800D2E901315061CDE9F2
:10A12000071406A811689847AEE79FED0F7BD3F898
:10A130003C45D0684FF0010CCDE9070482ED067B69
:10A14000D2E900138DF818C006A898478BE7E2689B
:10A15000A1610123CDE907208DF8183006A8D4E9C4
:10A160000013984770E700BF0000000000000000E7
:10A1700000200040482B00202DE9F04307796D4E68
:10A1800007EBC70306EB830387B093F82030002B5F
:10A1900040F0A38004460D46006867499046FFF7EB
:10A1A0006BFC002840F095802B68591C4FEAC709CA
:10A1B0000CD04FF0A041012202FA03F3C1F8083598
:10A1C0002B6803F5E073032241F823206B685A1CC7
:10A1D00006D003F5E0734FF0A042002142F82310AF
:10A1E0002368AA69C3F824252B7D6A7D1A43236856
:10A1F000C3F86C25D5E900312268C2F80C35C2F8E5
:10A2000014152B7D012B73D009EB070206EB82039B
:10A21000C3F804802B6946F82230B8F1000F47D00C
:10A2200021682B7F0022C1F81021D1F81011019173
:10A2300001992168C1F82021D1F8201102910299D9
:10A240002168C1F82421D1F82411039103992168D0
:10A25000C1F84421D1F84411049104992168C1F84E
:10A260005821D1F858210592059A22683349C2F83D
:10A270000413226842F3073100294FEA123230DB1F
:10A2800001F160415B0101F56141DBB281F800330E
:10A29000226842F30733002B4FEA123109DB284DC5
:10A2A0005B09012201F01F0102FA01F145F82310B8
:10A2B00022684F4406EB87060121002386F8201010
:10A2C0000821C2F80015C6E90633736107B0BDE87E
:10A2D000F083112007B0BDE8F083082007B0BDE887
:10A2E000F083184902F00F025B01DBB28B54CFE719
:10A2F000AB68591C06D003F5E0734FF0A042002173
:10A3000042F82310EB685A1C0DD04FF0A0410122F7
:10A3100002FA03F3C1F80835EB6803F5E073032292
:10A3200041F82320EB682268A968C2F80835C2F812
:10A33000101569E7482B002001A00200100342001D
:10A3400000E100E014ED00E02DE9F04105794B4C0F
:10A3500005EBC50304EB830301465B68006882B02C
:10A36000EE00C3B1464BC0F808330B6843F3073225
:10A37000002A4FEA13330EDB5209DFF808C12032FE
:10A38000012703F01F0307FA03F34CF82230BFF351
:10A390004F8FBFF36F8F731904EB83039A69D0F863
:10A3A000003223F02003C0F8003242B10023C0F88D
:10A3B0004431D0F844310093009B012343600023D3
:10A3C000C0F85831D0F858310193019B731901221C
:10A3D00004EB8303C2609A69D0F85831002BFBD09C
:10A3E0001AB1D0F84431002BF6D00023C0F8003564
:10A3F0000B684FF0FF32D3F80C85D3F814E5D3F88F
:10A400000875D3F810C5C3F80C25C3F814250B68DC
:10A410009045C3F80825C3F8102506D008F5E07864
:10A420004FF0A043022243F82820BEF1FF3F06D0A0
:10A430000EF5E07E4FF0A043022243F82E20BCF13F
:10A44000FF3F06D00CF5E07C4FF0A043022243F81A
:10A450002C207B1C06D007F5E0774FF0A0430222AA
:10A4600043F82720FFF72EFB354404EB8504002337
:10A4700084F82030636002B0BDE8F081482B0020F2
:10A480001003420000E100E001F0604CBCF1005F0D
:10A4900030D170B590F804E0264C0EEBCE0C04EBF6
:10A4A0008C0C0346DCF8140082B04FEACE0500287D
:10A4B0003BD1CCF81420CCF808101A68C2F820015F
:10A4C000D2F820210192019A1A68C2F85801D2F8F4
:10A4D00058210092009A1A68DCF81460C2F84415FA
:10A4E000C2F848651A6801219160DCF804201AB1AD
:10A4F00002B070BD102070471A6800E0C0B9D2F8F1
:10A500002011D2F858010029F8D088B90121D16072
:10A510001B68D3F85821002AFBD005EB0E0304EB8F
:10A52000830300225A6102B070BD112002B070BDD9
:10A530000F20F2E7482B002072DF704773DF70476F
:10A5400076DF70477ADF70477CDF70477FDF7047C8
:10A550008FDF7047B1DF7047FCF798BF08B503780D
:10A5600003B108BD054B3B211888FFF7E9FF002820
:10A57000F7D0BDE80840FCF789BF00BF5623002094
:10A580000D2801D0FCF782BF104B1148C01AC0083B
:10A59000000410B540F003000C460E49FCF706FB22
:10A5A0000D4B0E491888224601F050FA30F008028F
:10A5B00007D043F20202904203D043F2014290429C
:10A5C00000D110BDBDE81040FCF760BFFCCC02001C
:10A5D00024CD020004C7020056230020C02B002017
:10A5E00008B502206AB1FEF775FC0948094B0A4913
:10A5F000C01AC0080004BDE8084040F00300FCF7A2
:10A60000D5BAFEF773FC0248024B0449F0E700BFDD
:10A6100024CD0200FCCC020020C7020034C7020097
:10A62000FCF734BF10B50388212B82B0044613D841
:10A630000F2B0FD9103B112B0CD8DFE803F0284566
:10A640000B650B0B0B0B0B0B0B0B0B0B0B0B0B1CEF
:10A650003B2B05D002B010BD522B5FD0562BF7D14B
:10A66000A0881321FFF76CFF0028F3D002B0BDE8EB
:10A670001040FCF70BBF00238088ADF8043001A91F
:10A68000FFF766FF0028E5D0FCF700FFE2E72D4B5F
:10A690002D482E49C01AC008000440F00300FCF702
:10A6A00085FA0120FEF716FC0020FEF71FFC284B60
:10A6B000A1882848198001F0C7F800283ED1FCF78E
:10A6C000A1FE0028C6D0D1E71E4B1F482249C01A60
:10A6D000C008000440F00300FCF768FA0120FEF710
:10A6E00005FC1B4B4FF6FF721A80FCF7A1FE10BB56
:10A6F0001A4B01211878FFF721FFC8B9002002B0DA
:10A70000BDE81040FEF7E6BB114A00231088852102
:10A710001A46FFF71BFF00289CD0A7E70C4A00232E
:10A72000108819461A46FFF715FF002892D09DE7BA
:10A73000FCF7ACFEE2E7FCF7A9FED9E7FCF7A6FEC2
:10A74000BDE700BFFCCC020024CD020048C70200D8
:10A7500056230020D82B002054C702005423002089
:10A7600000B54FF48041A7B00020FBF7DDFE0028C4
:10A7700040F0E280FBF7C8FE0120FEF7C3FBFDF7C7
:10A7800091F8002840F00881854840F233320121D9
:10A79000FCF7DCFD002840F0FC80FEF7F9F800280B
:10A7A00040F0F48001F074F9002840F0EC800023C0
:10A7B00017A90120179301F04BFA002840F0E08020
:10A7C00017A801F003FB002840F0D780112375483B
:10A7D0008DF8203001F0C2FB724982B208A8FFF761
:10A7E000B3FE002840F0C6800822002117A801F01F
:10A7F000ADFB6D4A4FF0C87317A8CDE91723FFF7DB
:10A80000A1FE002840F0B3806848002100F002FF5C
:10A81000002840F0A980664B66481793002217A9CC
:10A82000089200F0FFFF002840F09B80624B6348D5
:10A83000089308A901F0A2F8002840F08F805F4B30
:10A840005F4C9B7C8DF8063041F223503C22002166
:10A85000ADF8040008A801F079FB02233C22002196
:10A860008DF8203017A840F20163ADF8223001F0D6
:10A870006DFB224601A901231C9108A852F8041B74
:10A88000ADF86C3000F026F9002864D14D4AA1687B
:10A8900017A800F01FF900285AD11822002102A899
:10A8A00001F054FB00230122ADF8143003934FF460
:10A8B00080738DF80820ADF81C3041494248402390
:10A8C00002AA0493FFF738FE00283ED11C22002183
:10A8D00017A801F03BFB4FF4A0240023CDE9173467
:10A8E0003A493B4AADF86A304FF4A034199417A89E
:10A8F0000324CDE91C128DF868408DF86C3000F00F
:10A900000FFCF8B9334B34483449C01AC00800046E
:10A9100040F00300FCF74AF92B4B01211878FFF7B0
:10A920000DFE60B90020FEF7D5FAFBF74DFE0028BA
:10A93000FBD1FEF743F8F8E7FCF7A8FD1AE7FCF7B0
:10A94000A5FDEFE7FCF7A2FDDCE7FCF79FFDBDE707
:10A95000FCF79CFDA1E7FCF799FD97E7FCF796FD56
:10A960006DE7FCF793FD61E7FCF790FD53E7FCF71B
:10A970008DFD49E7FCF78AFD36E7FCF787FD25E703
:10A98000FCF784FD1CE7FCF781FD10E7FCF77EFD7A
:10A9900008E7FCF77BFD00E7FCF778FDF4E600BF75
:10A9A0003C23002064C702005000A000AC2B002014
:10A9B00059A50200D82B0020E1A50200C02B0020E1
:10A9C0004423002050230020542300205DA50200D2
:10A9D00021A60200FCCC020024CD020074C70200B4
:10A9E0006DDF704779DF70477DDF704764DF704748
:10A9F0002DE9F04F85B099460E9E0388BDF83CA026
:10AA00000091174632880192002B53D04FF0000876
:10AA1000C3464546804605E0B8F800200BF1010B1F
:10AA20005A4529DDD8F8041051F82B000390002274
:10AA30000DF10B0103A8FFF7D9FF044630BB9DF8C9
:10AA40000B20BA42E8D12DB33288D119514536DCFA
:10AA50004A440DF10B0103A80125FFF7C7FF0028A9
:10AA600032D131889DF80B200A443280B8F800209A
:10AA70000BF1010B5A45D5DCE5B13388019A013B56
:10AA80009B1A9BB2FF2B1AD809F80230204605B05A
:10AA9000BDE8F08F3288511C3A440232524589B2E7
:10AAA0000DDC009B318009F801303288013292B20E
:10AAB0003280CDE70024204605B0BDE8F08F0C249D
:10AAC000204605B0BDE8F08F0446204605B0BDE83D
:10AAD000F08F00BF2DE9F04700231788138090F80E
:10AAE0002D3086B0144606460D46002B40F0FE8001
:10AAF000B278002A40F0F380F178A1B1DA1CBA42B2
:10AB000000F2F0800222EA542388012213449BB20F
:10AB10002380EA54238813449BB22380E95423887A
:10AB200013449BB223807268AAB1D91CB94200F2C7
:10AB3000D980022192F90020E954238801339BB285
:10AB40000A212380E954238801339BB22380EA54ED
:10AB50002388013323803389002B40F0F180338A2E
:10AB6000002B40F02581338B002B40F03B81336A72
:10AB7000002B42D02088821DBA4200F2B3801A888E
:10AB8000052A40F28A816FF4486802EB080189B215
:10AB90004FF27D3C614540F280815988052940F2A1
:10ABA0007C816FF4486E8E441FFA8EFEE64540F2BB
:10ABB00074814FF6FF7C624502D08A4200F26D81BB
:10ABC00005222A542288013292B212212280A954ED
:10ABD0002288013292B222801988A9542A44090A93
:10ABE00051702288023292B222805B88AB542A4490
:10ABF0001B0A5370238802332380736A002B2FD0E3
:10AC00009988B4F800C0881C0CF102020244BA42D0
:10AC100068D8FE2866D8033105F80C102288013266
:10AC200092B2FF212280A9542288013292B222805E
:10AC30001988A9542A44090A51702088023080B228
:10AC400020809A8862B199680393002900F02581D9
:10AC5000284401F06DF9039B9A88238813442380CC
:10AC600096F82C30002B40F0D680307800283AD06F
:10AC70003388012B00F0118123889A1CBA4231D805
:10AC8000012804D17178023119448F422AD3023F3E
:10AC9000FF1ABFB2A81804A9ADF81070FFF7A4FE00
:10ACA00008BB3378022B00F000817178BDF81020CA
:10ACB0009142C0F0F6809742C0F0F3801746092217
:10ACC000FE2F0FD82388791CE954238801339BB2C7
:10ACD0002380EA54238801331F44278003E0043390
:10ACE000BB4248D90C2006B0BDE8F087082FF9D93F
:10ACF00004A8FFF775FE0028F5D123880822EA543E
:10AD0000238801339BB21B222380EA542088013020
:10AD100080B22080062228440DF1110101F008F9CB
:10AD200023889DF8102006339BB212F0FE0218BF54
:10AD300001222380EA54238801339BB22380D7E683
:10AD400006F108080222CDE900472B46114640468D
:10AD5000FFF74EFE0028C6D1CDE9004740462B46FE
:10AD600010220621FFF744FE0028BCD1338A002BB5
:10AD70003FF4F9AE1CE004A8FFF734FE0028B2D17E
:10AD800023880322EA54238801339BB219222380AB
:10AD9000EA542388BDF8102001339BB22380EA5483
:10ADA0002B44120A5A70238802339BB22380A3E6F5
:10ADB00006F11008CDE900472B4602220321404648
:10ADC000FFF716FE00288ED1CDE9004740462B46FE
:10ADD00010220721FFF70CFE002884D1338B002BB3
:10ADE0003FF4C5AE06F11808CDE900472B46022214
:10ADF00014214046FFF7FCFD00287FF474AFCDE935
:10AE0000004740462B4610221521FFF7F1FD002890
:10AE10003FF4ADAE67E7B16A00293ED04FF00009BC
:10AE20004B464FF0160A2BE02388E8542388013361
:10AE30009BB2238005F803A0238801339BB22380B3
:10AE400031F82220EA542B44120A5A70208802302A
:10AE500080B22080B8F8042028444AB1D8F80810FD
:10AE6000D9B101F065F8B8F8042023881344238091
:10AE700096F82C205FFA89F39A427FF6F6AEB16A13
:10AE800003EB430201EB820809F10109B8F8043031
:10AE9000D81C0233FE2BC7D924E7072006B0BDE833
:10AEA000F087012B08D008220AE7BDF810309F4236
:10AEB000F9D31F46092203E78F42F4D30F46082235
:10AEC000FEE600BF75DF704776DF70477ADF7047B8
:10AED0007BDF704770B51D4D2B8884B2A34282B0D2
:10AEE00011D11B4E297A327B91420ED3337C002242
:10AEF0002A72F3B9736933B100228DF80420ADF8DA
:10AF0000064001A8984702B070BD05F10A01184635
:10AF1000FFF7D8FF40B11128F5D0B369002BF2D06C
:10AF200002B0BDE8704018472B7A01332B7202B093
:10AF300070BD3B212046FFF7C7FF30F00803D9D092
:10AF4000B369002BD6D09847D4E700BF002C00206F
:10AF5000E42B002070B50288122A82B003466DD01F
:10AF600015D8102A30D0112A0FD16A4C8288238834
:10AF70009A420AD16068FCF73FFD18B1664B9B69A5
:10AF800003B198474FF6FF73238002B070BD502A7B
:10AF9000FBD1614DC188EA899142F6D1028A022A29
:10AFA000F3D15C4C828826889642EED1123000F0B4
:10AFB000A5F9002800F09880637A002B40F09B8070
:10AFC000D5E90113324667E090F80FC0BCF1010FDC
:10AFD000DBD1504C21884FF6FF7291427DD14F4D0D
:10AFE000828822800021217203CDC4F80A00C4F8AF
:10AFF0000E10598A6089884260D8A08988425DD342
:10B00000E1899B8A40F2F315A94294BF481A481B74
:10B01000984253D82944994250D33F4D84F809C0EF
:10B02000EB89002BB1D16B69002BAED001218DF8DB
:10B030000410ADF8062001A89847A6E7354C828891
:10B0400021889142A1D14089658985421FD8A5896F
:10B0500085421CD3E0899B8940F2F31C604594BF74
:10B06000051AA0EB0C059D4211D8604498420ED3FE
:10B07000294B5B694FF480722281002B85D001221D
:10B080008DF80420ADF8061001A898477DE7224D01
:10B09000002363726968AB68207A002818BF1946DC
:10B0A0006068FCF74DFC00283FF46FAFAB69002BE4
:10B0B0003FF46BAF02B0BDE870401847164DEB8906
:10B0C00000216172002B7FF460AF69686068FCF753
:10B0D00037FC00283FF459AFE8E70F4B9B69002B82
:10B0E0003FF453AF0420E5E76068FCF785FC0028D7
:10B0F0003FF44BAFDAE76B6900222272002B3FF47A
:10B1000044AF01228DF80420ADF8066001A89847ED
:10B110003BE700BF002C0020E42B0020142C002073
:10B1200070B3F8B586460768164E174D0446BEE85C
:10B130000F00B446ACE80F009EE8070035608CE8CD
:10B140000700BFB13846FFF7C1FE90B92368186801
:10B15000596803C50D4B0E490E4A18464FF6FF7449
:10B1600040F8041F1C800021FCF7D2FB002818BF08
:10B170000320F8BD2846FFF7ABFE0028EAD0F8BD53
:10B180000E207047E42B0020142C0020002C0020FF
:10B19000202C0020D5AE02002DE9F04F0388B0F836
:10B1A0000490103B99B007460A2B12D8DFE803F051
:10B1B00028711111111111111178140046484946D6
:10B1C000FCF79CFE45484946FCF798FEFB7B022BAA
:10B1D0007CD019B0BDE8F08F037A41483F2B4FEA8D
:10B1E0001314494665D9FCF789FE3E484946FCF7E9
:10B1F00085FE3D48494619B0BDE8F04FFCF77EBEDC
:10B200003A4A9368DB43009351686846FCF7AEFE08
:10B21000009B0193019B9BB34FF0000844462146DD
:10B2200001A8FCF783FE30B118AB03EB480308F12B
:10B23000010823F8284C0134142CF0D1CDF83480C7
:10B240000DAD0FCD02AC0FC40FCD0FC495E80700B4
:10B2500084E80700B8F1000F12D0254E0DF10A0B5B
:10B260004FF0000A3BF8025F1C4C2046294604348C
:10B27000FCF750FEA642F8D10AF1010AC245F1D10D
:10B28000B9F1130F9AD90420FCF700F919B0BDE801
:10B29000F08F1148494619B0BDE8F04FFCF73ABEAF
:10B2A000037A002B95D1437A0D481B074946F2D506
:10B2B000A1E7FCF72FFE032C97D00A484946FCF77C
:10B2C00029FE022C95D008484946E4E7094849463A
:10B2D000FCF714FE7DE700BF482C0020442C002022
:10B2E000582C0020542C0020502C0020402C0020F2
:10B2F000BC2C00204C2C0020AADF7047008800F0F6
:10B3000001007047F0B58B7891B0012B38BF012355
:10B310000C468DF80E3005460B88ADF80C301646FD
:10B3200000210322684600F011FE637C0022013BED
:10B330008DF80020042B09D8DFE813F0CF00D300EC
:10B34000D700DB00050022238DF80030A37C00220B
:10B35000013B8DF80120042B09D8DFE813F0CE0063
:10B36000D200D600DA00050022238DF80130E37BFD
:10B37000217B41EAC301237C41EA03119DF802309D
:10B3800001F0190123F019031943237D002B14BF89
:10B390000223012363F342018DF802101C220021D5
:10B3A00009A800F0D3FD637B13F0300F74D1637BE9
:10B3B0008DF824301422A37B8DF82530002104A8B9
:10B3C00000F0C4FDA288A368ADF81C2003AACDF844
:10B3D00014D004921BB10893E388ADF81830A36928
:10B3E000002B36D001AF03220021384600F0AEFD1D
:10B3F000A2691188ADF82C1000238DF80430538811
:10B40000ADF82E3053680D970A93137B013B042B44
:10B410002DD8DFE803F0969A9E8A290022238DF822
:10B420000530917A137A43EAC103D17A927B002ADC
:10B430009DF8062043EA011322F0190203F01903D4
:10B4400043EA020314BF0222012262F342038DF891
:10B450000630E36903B10C93334604AA09A92846D0
:10B46000FFF74AFF11B0F0BD22238DF80430537B63
:10B470000021013B8DF80510042BD2D801A151F811
:10B4800023F000BF33B502003BB502001BB502003C
:10B4900023B502001DB4020002AF0322002138468A
:10B4A00000F054FDE37C0022013B8DF80920042BC1
:10B4B00007D8DFE803F0525E5A56030022238DF8C6
:10B4C00009309DF80A300E97012262F342038DF88D
:10B4D0000A3011238DF8083069E711238DF8003008
:10B4E00034E721238DF8003030E731238DF8003028
:10B4F0002CE712238DF8003028E711238DF8013056
:10B5000035E721238DF8013031E731238DF8013003
:10B510002DE712238DF8013029E731238DF805300E
:10B520007FE712238DF805307BE712238DF8043076
:10B530009DE711238DF8053073E721238DF8053041
:10B540006FE711238DF8043091E721238DF8043043
:10B550008DE731238DF8043089E711238DF8093008
:10B56000AFE712238DF80930ABE731238DF80930AE
:10B57000A7E721238DF80930A3E700BF90DF7047CC
:10B58000A5DF7047B5DF704770B5002484B061F364
:10B590000F04002361F31F446A4602A90294064681
:10B5A00003930093ADF80430FFF7E8FF044610B9A9
:10B5B000204604B070BD124B124DED1AED08FDF798
:10B5C00077FA2D0445F0010503460F493246284617
:10B5D000FBF72AF9BDF80020BDF8023052EA03015A
:10B5E00003D00A492846FBF71FF9BDF80420002ABA
:10B5F000DED028460649FBF7FBF9204604B070BDB3
:10B60000FCCC020044CD02008CC70200D8C7020067
:10B6100018C8020008B90E2070474FF01712002317
:10B6200001614FF01B0C41F61B31026080F804C031
:10B63000C0F8062043818181184670478288002A1D
:10B640003FD130B50388242B83B00C4611D80F2B83
:10B6500033D9103B142B30D8DFE803F074992F2F27
:10B660002F2F2F2F2F2F2F2F2F2F2F2F2F2F2FA376
:10B6700088003A2B46D0552B1FD1C388C988A272A7
:10B68000172B38BF17238B4228BF0B462381104648
:10B69000FFF778FF002840F08F80E37A6BB92269CA
:10B6A0005AB12189ADF8041040F67720ADF80000BA
:10B6B000ADF80230694620469047A37A5BB903B0E3
:10B6C00030BD7047112840F09280237B627B0121BE
:10B6D0009A42A17245D3E1880020FFF751FF60B381
:10B6E0001128ECD0FDF7E4F9484B49490246494896
:10B6F0001B1ADB081B0443F0010003B0BDE8304017
:10B70000FBF776B94389C98825698B4228BF0B4668
:10B71000172B38BF1723238165B1E17A51B140F669
:10B720007721ADF80010ADF80220ADF8043069467D
:10B730002046A84700236381C1E74FF480736381EB
:10B7400003B030BD0B790B73C27B012A42D0022AB1
:10B7500030D14988E18022898A423ED3627B9A4275
:10B76000ABD219460020FFF70FFFA6E70B69027A5C
:10B770004A73002BA1D000204DF67A218DF80500E8
:10B7800000918DF8042069462046984795E74FF0D0
:10B790001711002241F61B33C4F806106281A38101
:10B7A0008DE7017A237B994228BF19460020FFF7D5
:10B7B000EBFE82E7C988CEE7FDF77AF9134B16490D
:10B7C000024614481B1ADB081B0443F00100FBF778
:10B7D0000FF962E70988E180BDE70020FFF7D0FE9E
:10B7E00000287FF46FAF0122237BE272B6E7FDF7FA
:10B7F0005FF9064B0649024606481B1ADB081B0484
:10B8000043F00100FBF7F4F8237BA7E744CD0200E7
:10B8100070C80200FCCC0200A4C80200B0DF704770
:10B8200066DF704760B159B10378DE2B0AD0096832
:10B830004160DE224FF6FF730270438000207047A4
:10B840000E2070470820704738B10378DE2B02D1F4
:10B85000418000207047082070470E20704700BFCD
:10B86000F9B170B5054684B050B10B78DE2B0C46AB
:10B8700006D180884B88984214D02B88012B01D0A8
:10B8800004B070BD2E7A012EFAD16388A888984240
:10B89000F6D126720021FFF7C3FF00284DD1207298
:10B8A000EEE770470B7AEBB92B88112B31D0512B77
:10B8B000E4D1AB79022BE3D1AA7B02F0FD0104298C
:10B8C0002ED0052ADCD100226946C1E9012200926E
:10B8D000CA608DF80030FFF7A1FF0028D0D0636860
:10B8E0009847CDE70021FFF79BFF0346B0B1112831
:10B8F00013D0636898472B88112B06D0512BBDD1EC
:10B90000A88863888342D4D0BAE7AA8863889A4219
:10B91000B6D14FF6FF736380B2E701232372EAE7E3
:10B9200069460022C1E901220092CA604FF4C07248
:10B930008DF80030ADF80420CDE7112804D06368FD
:10B9400004B0BDE870401847267299E7A8DF704739
:10B95000AEDF704762DF70470288502A00D0704720
:10B96000B0F806C04A889445F9D1028A012AF6D176
:10B970004B69002BF3D0827C8088184730B5324B5E
:10B980000A68426104460FCB8FB00DF1080C8CE8B9
:10B990000F0004F112016046FFF7DCFF08B10FB0A1
:10B9A00030BDA07C8DF8060041F22353224601A948
:10B9B0000120ADF80430FFF7C9FF0028EFD10146A0
:10B9C000202206A800F0C2FA9DF82530A17C8DF84F
:10B9D0001A10224623F0120343F0120341F22451BD
:10B9E0008DF82530ADF8181001234FF0011532F80D
:10B9F0000A0B8DF8293006A98DF82B300795FFF733
:10BA000081FC0028CBD10146202206A800F09EFA36
:10BA10009DF82530A07C8DF81A00224641F2255170
:10BA200023F00A0343F00A03ADF8181032F8020BB2
:10BA3000079506A940F20114ADF829408DF825308C
:10BA4000FFF760FC0FB030BDE4C8020070B588B0ED
:10BA50000D468DF807201022044601260DEB02004A
:10BA60000021ADF80E6000F071FA6B89ADF810306E
:10BA70000DF107020DF10E0304A92046CDE90632AF
:10BA80008DF81260FFF764FF08B070BD10DF7047DB
:10BA900070B53D4D2B7884B0002B67D13B4E3C49AF
:10BAA000012302A83370FCF7C1FF039B23B90FE009
:10BAB000FCF7C6FF039B5BB1D3E900310020984738
:10BAC000034602A8002BF3D11C46204604B070BDEB
:10BAD000304902A8FCF7AAFF039B4BB1D3E9003120
